:020000040800F2
:10000000B00C00206D02000893260008232400088D
:1000100091260008010800087D3500080000000056
:100020000000000000000000000000005D3000083B
:100030000308000800000000952600085F30000853
:10004000870200088702000887020008870200086C
:1000500087020008870200088702000805080008D8
:10006000870200088702000887020008870200084C
:10007000870200088702000887020008870200083C
:10008000870200088702000887020008870200082C
:10009000870200088702000887020008870200081C
:1000A000870200088702000887020008870200080C
:1000B000870200080000000000000000870200081E
:1000C00087020008870200088702000887020008EC
:1000D00087020008393500088702000887020008F7
:1000E00087020008870200080000000000000000EE
:1000F0000000000000000000000000000000000000
:1001000000000000870200080000000087020008CD
:1001100000000000000000008702000887020008BD
:10012000870200088702000887020008870200088B
:10013000870200080000000000000000000000002E
:10014000870200088702000887020008870200086B
:10015000870200088702000887020008870200085B
:1001600087020008870200088702000800000000DC
:1001700087020008870200088702000800000000CC
:1001800087020008870200088702000800F002F8D2
:1001900000F042F80AA090E8000C82448344AAF1DF
:1001A0000107DA4501D100F037F8AFF2090EBAE8DD
:1001B0000F0013F0010F18BFFB1A43F0010318479B
:1001C000A8360000C8360000103A24BF78C878C1AD
:1001D000FAD8520724BF30C830C144BF04680C604D
:1001E000704700000023002400250026103A28BF95
:1001F00078C1FBD8520728BF30C148BF0B60704799
:100200001FB503F04FFA9DE8030000F01BFA00F061
:1002100030F91FBD10B510BD00F070FA1146FFF7A0
:10022000EFFF03F0BDF900F08EFA03B4FFF7F2FF21
:1002300003BC00F0BFFA00000B49D1F800C04A68C7
:100240005CF8043B1068184442F8040B8C4528BF46
:10025000A1F1DC0C8A4228BFA1F1DC02C1F800C088
:100260004A6020F00040704744060020094880475B
:1002700009480047FEE7FEE7FEE7FEE7FEE7FEE788
:10028000FEE7FEE7FEE7FEE704480549054A064BA0
:1002900070470000DD3000088D010008B006002026
:1002A000B00C0020B0080020B008002070B5064651
:1002B00000F0ACF9056806F10B0020F00704B44229
:1002C0009CBF002070BD2B466A68BAB11068A0427E
:1002D00010D304F1080188423CBF5068586007D32E
:1002E0005168101941601168091B01605860146061
:1002F000101D70BD13465268002AE7D121462846DA
:1003000000F08CF90028DED170BD70B50446051FE1
:1003100000F07CF90068002C14BF446870BD002C0C
:1003200018BFAC423CBF20466468F8D301680A1885
:10033000AA4218BF456003D12A68054611440160EE
:1003400028684119A1421CBF6C6070BD616869607A
:1003500021680844286070BD53EA020C00F06980EF
:100360002DE9F04B4FF00006002B1FBFB3FA83F5C9
:1003700003FA05F424FA05F65E4012BF1643B2FAFA
:1003800082F502FA05F4C5F120051EBF22FA05FC2C
:1003900044EA0C04203556EA044C4FEA144418BFD2
:1003A000641C4FF000084FF00009904271EB030C01
:1003B00039D3002919BFB1FA81F701FA07F6B0FA6B
:1003C00080F700FA07F6C7F120071EBF20FA07FCE6
:1003D00046EA0C062037B6FBF4FCA7EB0507103FF6
:1003E00007F01F0BCBF120060CFA0BFB2CFA06F6DC
:1003F00044BFB3460026202FA4BF5E464FF0000B3B
:100400005BEA060C08BF4FF0010B19EB0B09ABFBC5
:10041000027C48EB0608C01B06FB02CC0BFB03CC9E
:1004200071EB0C01C1E70B46024641464846BDE868
:10043000F08B13B54FF000004FF00001AFF30080D8
:10044000BDE81C40704700000B4910B5A1F17C02CB
:100450000A4CC2E93712372106E000EB104342F89C
:100460002130074B00FB03400B1EA1F10101F4DC1E
:1004700010BD0120E8E70000E4050020E119D66680
:10048000CD0D0100032A40F2308010F0030C00F083
:10049000158011F8013BBCF1020F624498BF11F8BE
:1004A00001CB00F8013B38BF11F8013BA2F1040277
:1004B00098BF00F801CB38BF00F8013B11F00303EF
:1004C00000F02580083AC0F0088051F8043B083A53
:1004D00051F804CBA0E80810F5E7121D5CBF51F8F5
:1004E000043B40F8043BAFF30080D20724BF11F86F
:1004F000013B11F801CB48BF11F8012B24BF00F8D4
:10050000013B00F801CB48BF00F8012B704710B544
:10051000203AC0F00B80B1E81850203AA0E81850FB
:10052000B1E81850A0E81850BFF4F5AF5FEA027CBC
:1005300024BFB1E81850A0E8185044BF18C918C02B
:10054000BDE810405FEA827C24BF51F8043B40F8CC
:10055000043B08BF7047D20728BF31F8023B48BFB1
:1005600011F8012B28BF20F8023B48BF00F8012BEF
:1005700070474FF000020429C0F0128010F0030C05
:1005800000F01B80CCF1040CBCF1020F18BF00F886
:10059000012BA8BF20F8022BA1EB0C0100F00DB835
:1005A0005FEAC17C24BF00F8012B00F8012B48BF93
:1005B00000F8012B70474FF0000200B51346944637
:1005C0009646203922BFA0E80C50A0E80C50B1F1AB
:1005D0002001BFF4F7AF090728BFA0E80C5048BFBF
:1005E0000CC05DF804EB890028BF40F8042B08BF5D
:1005F000704748BF20F8022B11F0804F18BF00F859
:10060000012B7047704770477047000000487047E3
:1006100054060020704770477047704738B504464D
:100620000A4600206946AFF30080002808BF38BDA5
:1006300002460099204600F03FF8012038BD012015
:1006400000F054B8F8B5AFF30080054600200C4622
:10065000102000BF0646A819A0420DD932466946AF
:100660000020AFF30080070008BF00F03FF80098BB
:10067000A04218BF0546C419FFF7C8FF056007462A
:10068000F01D20F007004619284600F00AF8B44291
:1006900008BFF8BDA21B31463868BDE8F84000F03D
:1006A0000BB800210160C0E90110704710207047AD
:1006B000004870474C060020034640688C460028DE
:1006C00018BF88423CBF03464068F8D318681844F6
:1006D000884207D00CF1030020F00700001D411AEA
:1006E000521A0146081D0A60FFF70FBE10B500F050
:1006F00039F8BDE8104000F02FB870477546FFF795
:10070000D7FFAE4605006946534620F007008546F0
:1007100018B020B5FFF7B8FDBDE820404FF0000647
:100720004FF000074FF000084FF0000B21F00701D9
:10073000AC46ACE8C009ACE8C009ACE8C009ACE81C
:10074000C0098D46704710B50446AFF300802046BF
:10075000BDE81040FFF769BD002801D000F02AB8BD
:100760007047000010B5012805D0002103A000F05B
:1007700027F8012010BD09A1F8E7000053494752AE
:10078000544D454D3A204F7574206F662068656161
:1007900070206D656D6F7279000000003A20486529
:1007A0006170206D656D6F727920636F7272757004
:1007B0007465640001491820ABBEFEE72600020004
:1007C00070B505460C460A2000E06D1C00F011F8DB
:1007D00035B128780028F8D102E0641C00F009F84F
:1007E00014B120780028F8D1BDE870400A20AFF39A
:1007F000008008B569468DF800000320ABBE08BD37
:10080000FEE77047022000F021B972B6FEE710B58E
:1008100090F825100022022905D00421C16380F838
:100820002420012010BD01680B6823F00E030B602B
:1008300001680B6823F001030B6090F84410046C0E
:1008400001F01C03012101FA03F3636080F8251015
:1008500080F82420104610BD10B590F82510002413
:10086000022903D00421C16301241AE001680A6847
:1008700022F00E020A6001680A6822F001020A6092
:1008800090F84410036C01F01C02012101FA02F2FD
:100890005A6080F82510002180F82410816B01B186
:1008A0008847204610BD000070B5044600F0D8F916
:1008B0000546601C02D004480078044400F0D0F9DA
:1008C000401BA042FAD370BD00000020F8B50A21F9
:1008D0005C48FFF770FE5B48343802F047F8594D2A
:1008E000343D0024287F00B12C77687F00B16C77FD
:1008F000A87F554F4FF4005680B15248343801F06C
:10090000F7FF504800231A460A213438009402F0B9
:10091000DBF93146384600F095F9AC77E87FB0B1A5
:1009200048490A22A1F1340002F031F9454834382F
:1009300001F0CAFF434800231A460A2134380094C4
:1009400002F0C2F93146384600F07CF9EC7795F8B0
:10095000200008B185F8204095F8210008B185F8FD
:10096000214095F8220008B185F8224095F823002F
:1009700008B185F8234095F8240008B185F8244093
:1009800095F8250008B185F8254095F8260008B1AE
:1009900085F8264095F8270008B185F8274095F896
:1009A000280008B185F8284095F8290008B185F895
:1009B000294095F82A0028B12248343801F0AAFFCE
:1009C00085F82A4095F82B0048B11E48343801F0CC
:1009D0007BFF1C48343801F09DFF85F82B4095F8CB
:1009E0002C0028B11748343801F094FF85F82C40CA
:1009F00095F82D0028B11348343801F08BFF85F8A5
:100A00002C4095F82E0028B10E48343801F082FFB2
:100A100085F82E4095F82F0028B10A48343801F0A7
:100A200079FF85F82F4095F8300028B10548343813
:100A300001F070FF85F83040BDE8F84001483438D7
:100A400001F0FEBE5405002000040048044910B522
:100A50000A68024202D00860FFF738FF10BD0000AC
:100A6000140401402DE9F04FDFF8AC910023032579
:100A7000A9F1040B85B04FF0010C0F2709F1040A0E
:100A8000ABF1040EBFE000BF0CFA03F6324075D0A4
:100A90000C7904F00304012C01D0022C1BD18468D2
:100AA00000945C0005FA04F80494009C24EA08040D
:100AB0000094D1F80C80049C08FA04F8009C48EAE1
:100AC0000408C0F808804468B4430E79C6F30016E1
:100AD0009E40264346600C79E443A4070AD0C468CC
:100AE0004FEA430805FA08F6B4438E6806FA08F69A
:100AF0002643C6600C7904F00304022C10D1DC08F4
:100B000000EB84040294246A5E074FEAD66807FA71
:100B100008F6B4430E6906FA08F62643029C2662DC
:100B200004684FEA430805FA08F6B4430E7906F064
:100B3000030606FA08F6264306604C6814F4403FA4
:100B400060D0364C266E46F001062666246E23F0F1
:100B5000030604F001040094314C34440294A46868
:100B60009E074FEA167807FA08F6B443B0F1904FA3
:100B700005D02C4EB04204D1012612E042E00026FE
:100B80000FE0294EB04201D102260AE0274EB042C2
:100B900001D1032605E0264EB04201D1042600E033
:100BA000072606FA08F62643029CA660D9F80060DC
:100BB0004C46D1F8048096435FEAC82800D5164316
:100BC0002660DAF800405646D1F8048094435FEA84
:100BD000882800D514433460DBF800405E46D1F825
:100BE000048094435FEA883800D514433460DEF80B
:100BF00000407646D1F8048094435FEAC83800D5B7
:100C0000144334605B1C0A6832FA03F47FF43CAF8F
:100C100005B000F00FB800000804014000100240C9
:100C2000000001400004004800080048000C004893
:100C30000010004830BCBDE8C08F0069084000D0FB
:100C400001207047426921EA02030A4043EA024157
:100C5000816170470AB1816170478162704700000D
:100C600001488068704700000000002090F8412093
:100C7000202A24D190F84020012A20D0012280F897
:100C80004020242280F841200268136823F00103E9
:100C900013600268136823F48053136002681368BA
:100CA0000B43136001680A6842F001020A602021C8
:100CB00080F84110002180F840100846704702205B
:100CC000704790F84120202A22D190F84020012A34
:100CD0001ED0012280F84020242280F841200268A2
:100CE000136823F0010313600268136823F4706330
:100CF00043EA0121116001680A6842F001020A60BA
:100D0000202180F84110002180F8401008467047EB
:100D10000220704770B5040004D094F8410000250B
:100D200010B106E0012070BD84F84050204600F06C
:100D30004DF8242084F841002068016821F0010169
:100D400001606068216820F0706008612068816837
:100D500021F400418160E0680128A06807D040F4D8
:100D6000044021688860E068022803D006E040F46F
:100D70000040F6E721684FF4006048602068416851
:100D8000114A114341602068C16821F40041C160EB
:100D9000D4E904010843A16940EA01202168C86040
:100DA000D4E907010843216808602068016841F020
:100DB000010101606564202084F84100256384F806
:100DC0004250002070BD0000008000022DE9F0417B
:100DD0009EB00446142118A8FFF7EDFB6021684679
:100DE000FFF7E9FB2C4920682C4C1226032700252D
:100DF0004FF00408884224D1402000900C956846AA
:100E000000F0DEF908B1FFF700FDE06C40F00100F2
:100E1000E064E06C1AAA00F001001D904FF4C0607D
:100E2000CDE9180682E8A00118A94FF09040FFF71D
:100E300019FEA06D40F40010A065A06D00F4001034
:100E400025E01749884223D1802000900D956846FF
:100E500000F0B6F908B1FFF7D8FCE06C40F00200F2
:100E6000E064E06C1AAA00F002001D904FF44060AC
:100E7000CDE9180682E8A00118A90A48FFF7F2FD9B
:100E8000A06D40F48000A065A06D00F480001D906E
:100E90001EB0BDE8F0810000005400400010024088
:100EA000005800400004004802488168027811445C
:100EB0008160704700000020094810B501680024D7
:100EC00041F480710160032000F082F8002000F0FE
:100ED00009F808B1012401E000F026F8204610BD11
:100EE0000020024070B50E4E05460024307898B1BF
:100EF0004FF47A71B1FBF0F00A490968B1FBF0F0E8
:100F000001F084F840B9102D06D200222946501E67
:100F100000F03EF8756000E00124204670BD00003E
:100F2000000000200C000020094808B5016E41F0C7
:100F300001010166016E01F001010091816D41F036
:100F400080518165806D00F08050009008BD0000E8
:100F50000010024000280DDB00F01F02012191402B
:100F60004009800000F1E020C0F88011BFF34F8FEE
:100F7000BFF36F8F7047002809DB00F01F020121CB
:100F800091404009800000F1E020C0F80011704756
:100F9000F0B40E4B1B680C46C3F30223C3F10705E4
:100FA000042D00D90425191D072901D2002300E0D2
:100FB000DB1E012606FA05F1491E214099409E409C
:100FC000761E16403143F0BC02F0D9BA0CED00E0B9
:100FD000064900F0070208684FF6FF03184040EA90
:100FE0000220034A10430860704700000CED00E047
:100FF0000000FA0501220168C0F8F022002280F802
:10100000E42231F8540F40F001000880088840F0D5
:1010100002000880104670472DE9F04186B00400B8
:1010200004D094F8AD02002520B108E0012006B0FC
:10103000BDE8F08184F8AC52204600F061F803204E
:1010400084F8AD02206802F08FFA04F11001182232
:1010500088466846FFF75BFA94E80F0002F072FAE0
:101060000226D0BB0021206802F086FA002001276A
:101070000FE000BF00EB800104EBC10181F82D708F
:1010800001F82C0FC881CD700D614D61401CC0B2BC
:101090008D6161688142EDD8002011E000EB800194
:1010A00004EBC10181F86D5181F86C0181F86F5139
:1010B000C1F87C51C1F88051401CC0B2C1F88451C4
:1010C00061688142EAD8182241466846FFF71FFA54
:1010D00094E80F0002F03FFA10B184F8AD62A5E782
:1010E00084F8285084F8AD72E069012802D12046C6
:1010F000FFF780FF206802F027FA002097E7000042
:1011000010B59AB0044660216846FFF754FA0C49BE
:101110002068884212D14014009000201290684646
:1011200000F04EF808B1FFF770FB0648816D41F002
:1011300080618165806D00F0806018901AB010BDEC
:1011400000680040001002401649B0F5007F0868B2
:10115000C0F3412009D0022805D0086820F4C060FF
:1011600040F480600860002070470128FBD00868C8
:1011700020F4C06040F4007008600B483222006820
:1011800050430A4AB0FBF2F0401C00E0401E4A699E
:10119000520501D50028F9D148694005E3D503205F
:1011A00070470000007000400C00002040420F001B
:1011B0000248006800F4C060704700000070004002
:1011C0002DE9F84F044600270088B54D3E4600053E
:1011D00015D5606C60B1B0F5000F04D0B0F5400FCC
:1011E0002BD001270AE0E86840F48030E86024E072
:1011F0000021201D01F050FA07001ED03E46206855
:1012000080033AD5A86D4FF00008C00009D4A86D3E
:1012100040F08050A865A86D4FF0010800F08050A4
:101220000090DFF880A2DAF8001041F48071CAF86B
:101230000010FFF715FD814610E0D5F88800616CBD
:1012400020F440000843C5F88800D8E7FFF708FD00
:10125000A0EB0900022801D9032705E0DAF8000015
:10126000C005F3D5002F7DD04FEA0706B8F1000F77
:1012700003D0A86D20F08050A8652078C00707D063
:10128000D5F88800216A20F003000843C5F88800DB
:101290002078800707D5D5F88800616A20F00C0017
:1012A0000843C5F888002078400707D5D5F888009E
:1012B000A16A20F030000843C5F888002078800635
:1012C00007D5D5F88800E16A20F440600843C5F8E6
:1012D00088002088800507D5D5F88800E16B20F4C8
:1012E00040200843C5F888002088400507D5D5F878
:1012F0008800216C20F440100843C5F8880020784D
:10130000400607D5D5F88800216B20F440500843EB
:10131000C5F888002078000607D5D5F88800616BED
:1013200020F440400843C5F888002088C00507D550
:10133000D5F88800A16B20F440300843C5F8880038
:1013400020884FF0006780044FF0806850D5D5F8B2
:101350008800A16C20F040600843C5F88800A06CAC
:10136000B84200E005E03BD1E86840F48010E86056
:101370003EE0D5F8900010F4407014D0E16D814249
:1013800011D0D5F89000D5F8901020F4407041F4B9
:101390008031C5F89010D5F8901021F48031C5F84F
:1013A0009010C5F89000C00711D0FFF759FC074610
:1013B00041F2883907E000BFFFF752FCC11B4945E5
:1013C00001D9032652E7D5F890008007F4D5D5F867
:1013D0009000E16D20F440700843C5F8900045E7A7
:1013E000404505D10121201D01F056F900B1064606
:1013F0002068000317D5D5F88800E16C20F0406024
:101400000843C5F88800E06CB84204D1E86840F4AD
:101410008010E86007E0404505D10121201D01F062
:101420003BF900B106462068400317D5D5F888007F
:10143000216D20F040600843C5F88800206DB84257
:1014400004D1E86840F48010E86007E0404505D129
:101450000121201D01F020F900B10646208840043A
:1014600011D5D5F88800616D20F040500843C5F8CB
:101470008800606DB0F1805F05D10221201D01F070
:101480000BF900B106462088000406D555F8880FF0
:10149000A16D20F0804008432860304600F004B879
:1014A000001002400070004018BCBDE8E08F000052
:1014B0002DE9F0470F4605006BD0494E306800F02B
:1014C0000700B84209D2306820F007003843306086
:1014D000306800F00700B8425BD12878414C8007A3
:1014E0000AD5A868A16801F0F001884204D9A16872
:1014F00021F0F0010143A1602878C0072CD0686872
:10150000032811D0022812D0216898B1490500297A
:101510003FDAA16821F003010143A160FFF7A0FBBE
:10152000804641F2883910E021688901EFE721689F
:101530008903ECE78907EAE7FFF792FBA0EB0801D4
:10154000494502D90320BDE8F087A068696800F02A
:101550000C00B0EB810FEFD1287880070AD5A8687E
:10156000A16801F0F001884204D2A16821F0F001E5
:101570000143A160306800F00700B8420BD9306821
:1015800020F0070038433060306800F00700B842B0
:1015900001D00120D7E72878400705D5A068E96881
:1015A00020F4E0600843A0602878000706D5A06812
:1015B000296920F4605040EAC100A06000F03EF8C4
:1015C000A168094AC1F30311515C01F01F01C84031
:1015D0000649086006480068BDE8F047FFF782BC8E
:1015E0000020024000100240B03600080C0000202D
:1015F000040000200548064900688968054AC1F3CF
:101600000221515C01F01F01C84070470C0000200E
:1016100000100240F0360008054806490068896855
:10162000054AC1F3C221515C01F01F01C840704757
:101630000C00002000100240F036000870B525496B
:10164000002318468A68CC6812F00C0204F00306E6
:10165000214C4FEA640509D00C2A05D0042A32D067
:10166000082A00D1284670BD012E10D10B681B0737
:1016700004D4D1F89430C3F3032302E00B68C3F31E
:101680000313164E56F82330DAB10C2AEBD1C86892
:1016900000F00300022818D0032818D01846CA68A2
:1016A000CB68C2F30212C3F306234343521CB3FBBD
:1016B000F2F2C868C0F34160401C4000B2FBF0F099
:1016C00070BD184670BD204670BD2046E7E728462D
:1016D000E5E70000001002400024F400C0360008D6
:1016E0002DE9F84304006FD0FA4DA86800F00C060D
:1016F000E86800F003072078C00664D576B10C2EA8
:1017000001D1012F0AD0A069002828687AD040F0C2
:1017100001002860FFF7A4FA80465DE02868800792
:1017200002D5A0690028DED0216A2868000703D509
:10173000286800F0F00004E0D5F89400F02202EAF6
:101740001010814216D9084601F03CF800283BD120
:10175000286840F0080028602868216A20F0F0001E
:10176000084328606868E16920F47F4040EA01206E
:10177000686016E0286840F0080028602868216A40
:1017800020F0F000084328606868E16920F47F4099
:1017900040EA0120686026B9206A01F013F80028A9
:1017A000D5D1FFF74BFFA968CB4AC1F30311515CB8
:1017B00001F01F01C840C9490860C9480068FFF727
:1017C00091FB00287ED12EE0CAE000BFFFF748FA67
:1017D000A0EB0800022876D828688007F6D528688C
:1017E00040F0080028602868216A20F0F0000843D3
:1017F00028606868E16920F47F4040EA0120686061
:1018000011E0FFE720F001002860FFF729FA804689
:1018100006E000BFFFF724FAA0EB08000228DAD8A0
:1018200028688007F6D42078C00740D0082E18D04A
:101830000C2E01D1032F14D06068B0F5803F17D073
:10184000B0F5A02F286817D020F4803028602868D1
:1018500020F4802028606068E0B1FFF701FA80463C
:1018600014E02868800322D56068002878D01EE044
:10187000286840F48030EDE740F480202860F7E7E6
:10188000FFF7EEF9A0EB08006428A4D828688003CD
:10189000F6D50CE0FFF7E4F9804605E0FFF7E0F944
:1018A000A0EB0800642896D828688003F6D4207836
:1018B00080073BD5042E11D00C2E01D1022F0DD064
:1018C000E06801E0AAE1FFE0002828681ED040F4AB
:1018D00080702860FFF7C4F907460CE028684005CF
:1018E0000CD5E0680028C1D008E000BFFFF7B8F9C8
:1018F000C01B022893D828684005F7D56868217C6A
:1019000020F0F85040EA016068600FE020F4807039
:101910002860FFF7A5F9074605E000BFFFF7A0F92B
:10192000C01B0228B1D828684005F7D420780007EA
:1019300029D560690028D5F8940012D040F0010044
:10194000C5F89400FFF78CF9074604E0FFF788F923
:10195000C01B022899D8D5F894008007F6D512E06C
:101960002BE120F00100C5F89400FFF779F9074654
:1019700005E000BFFFF774F9C01B022885D8D5F831
:1019800094008007F6D42078400766D5A86D00271C
:10199000C00008D4A86D40F08050A865A86D01274C
:1019A00000F0805000904F480168C90512D40168CA
:1019B000814641F480710160FFF752F9804605E0ED
:1019C000FFF74EF9A0EB080002287DD8D9F80000F7
:1019D000C005F5D5A068012816D00528D5F89000D7
:1019E00017D020F00100C5F89000D5F8900020F045
:1019F000040000BFC5F89000A06841F28839C0B16A
:101A0000FFF72EF980460FE0D5F8900040F0010076
:101A1000F0E740F00400C5F89000F5E7FFF720F983
:101A2000A0EB080149454FD8D5F890008007F5D5BF
:101A30000EE0FFF715F9804606E000BFFFF710F94A
:101A4000A0EB080149453FD8D5F890008007F5D4B0
:101A50001FB1A86D20F08050A8652078800628D599
:101A6000606A0028D5F8980012D040F00100C5F84F
:101A70009800FFF7F5F8074605E000BFFFF7F0F81C
:101A8000C01B022820D8D5F898008007F6D510E0B2
:101A900020F00100C5F89800FFF7E2F8074604E0DF
:101AA000FFF7DEF8C01B02280ED8D5F89800800793
:101AB000F6D4A06AF0B3022816D00C2E7DD0286888
:101AC00020F08070286000E0A7E0FFF7C9F8044626
:101AD000A6E0000000100240B03600080C00002014
:101AE0000400002000700040E868E26A00F0030192
:101AF000914228D1216B00F0700209011039914206
:101B000021D1626B00F4FE41B1EB022F1BD194F89E
:101B1000382000F07841B1EBC26F14D1A18F00F4EE
:101B2000C00249084905A1F5001191420BD194F872
:101B3000401000E06AE04908490600F0C060A1F1E9
:101B4000007181424BD00C2E73D02868400170D4B4
:101B5000286820F080702860FFF782F8064604E0CD
:101B6000FFF77EF8801B022857D828688001F7D439
:101B7000F4E90B016FF00F0202EB01110843218A17
:101B80005204490802EB4151A26841EA022108438C
:101B9000217D4FF07E42490802EB41610843217BE1
:101BA00040EAC160E968244A11400843E8602868B7
:101BB00040F080702860E86800E03AE040F0807013
:101BC000E860FFF74DF8044605E000BFFFF748F86E
:101BD000001B022821D828688001F7D527E0286853
:101BE000800124D4286840F080702860E86840F0C4
:101BF0008070E860FFF734F8044604E0FFF730F83F
:101C0000001B022809D828688001F7D50FE000BF23
:101C1000FFF726F8001B022802D90320BDE8F8834D
:101C200028688001F4D4E86804490840E86000208E
:101C3000F4E70120F2E700008C809D01FCFFEEFE3E
:101C400070B5040009D0606A002540B12561656166
:101C5000A56294F85D0040B10CE0012070BD6068A1
:101C6000B0F5827FF4D0E561F2E784F85C5020465D
:101C700000F056F8022084F85D002068016821F029
:101C800040010160E1684FF4E062914201D9002017
:101C900001E04FF48050B1F5706F02D0914200D056
:101CA000A562A188228901F4827102F404421143E1
:101CB000227C02F002021143227D02F00102114354
:101CC000228B02F400721143227F02F0380211438A
:101CD00094F8202002F080021143228D02F4005279
:101CE000114322681160A169042202EA114194F8AB
:101CF000242000F4805002F01002114394F83420A4
:101D000002F008021143A28902F4706211430143F8
:101D1000206841602566012084F85D00002070BDC8
:101D2000F0B587B0044614216846FEF744FC1A4912
:101D3000206888422DD11948016E41F48051016616
:101D4000016E01F480510591C16C41F00101C16443
:101D5000C16C01F001010591C16C41F00201C16447
:101D6000C06C022400F0020005270094CDE9047045
:101D700001AA0025032682E8700069464FF09040D2
:101D8000FEF770FE30208DE8F10069460448FEF74A
:101D900069FE07B0F0BD00000030014000100240B5
:101DA000000400482DE9F05F044690F85C0000272D
:101DB0000A9E1D4692468B464FF0010901280ED01F
:101DC000012084F85C00FEF74BFF804694F85D002C
:101DD000616801280CD0B1F5827F07D102E00220B2
:101DE00000F011B9A16809B9042801D0022700E167
:101DF000BBF1000F24D0BAF1000F21D005B394F845
:101E00005D00042802D0052084F85D0000202066D3
:101E1000C4F840A0A4F84650A4F84450C4F838B020
:101E2000E587A587E0642065E0684FF4E0618842BB
:101E300001D8012D06D92068426822F4805205E0BD
:101E40000127D6E02068426842F480524260206850
:101E50000268520603D4026842F040020260E06861
:101E60008842606845D908B1012D3AD1A06B21683C
:101E70000088C860A06B801CA063E08F401EE087D4
:101E80002FE02068816889070FD5E18F69B1B9F12A
:101E9000010F0AD1A16B0988C160A06B801CA063EF
:101EA000E08F401EE0874FF0000920688168C90775
:101EB0000FD0B4F8461061B1C068216C0880206C66
:101EC000801C2064B4F84600401EA4F846004FF081
:101ED0000109FEF7C5FEA0EB0800B04201D3701C5B
:101EE00075D1E08F0028CCD1B4F846000028C8D1C5
:101EF00076E008B1012D6CD1E08F0128A06B08D9E4
:101F000021680088C860A06B801CA063E08F801EE1
:101F100007E0216800780873A06B401CA063E08F85
:101F2000401EE08755E02068816889071AD5E18F57
:101F3000C1B1B9F1010F15D1E18F0129A16B07D909
:101F40000988C160A06B801CA063E08F801E06E042
:101F500009780173A06B401CA063E08F401EE087EE
:101F60004FF0000920688168C90728D0B4F84610EE
:101F700029B3B4F84610012914D9C068216C08802F
:101F8000206C801C2064B4F84600801EA4F8460033
:101F9000B4F84600012810D82068416841F4805107
:101FA00041600AE0007B216C0870206C401C2064BA
:101FB000B4F84600401EA4F846004FF00109FEF7B1
:101FC0004FFEA0EB0800B04202D3701C01D018E015
:101FD000BEB1E08F0028A6D1B4F846000028A2D1F7
:101FE00042463146204600F045FF10B1012720202F
:101FF0002066012084F85D00002084F85C003846EB
:10200000EEE60327F5E730BCBDE8C09F10B5401EE3
:10201000B0F1807F01D3012010BD4FF0E02460615A
:102020000F21601701F0ABFA0020A06107202061AA
:10203000002010BD70477047704700002DE9F04147
:1020400002680446D0691168936840F60F0528427B
:102050004FF0000505D186067ED58E067CD5616ED3
:102060001BE1994F03F001060F40374374D0C707B7
:1020700009D0CF0507D501271762D4F8802042F098
:102080000102C4F8802082070AD5DA0708D0276841
:1020900002223A62D4F8802042F00402C4F8802080
:1020A00042070AD5DA0708D0236804221A62D4F856
:1020B000802042F00202C4F8802002070CD501F013
:1020C0002002324308D0236808221A62D4F8802004
:1020D00042F00802C4F8802002050BD54A0109D558
:1020E00023684FF400621A62D4F8802042F0200284
:1020F000C4F88020D4F88020002A35D0800605D589
:10210000880603D5616E09B120468847D4F880005F
:1021100021688968490602D410F0280F26D020468D
:1021200001F080F82068806840061AD520680830E1
:1021300050E8001F21F0400140E80012002AF5D1CC
:10214000206F70B161498163206FFEF785FB002825
:102150000AD0206F816B01E00EE02046BDE8F0411F
:1021600008472046FFF768FFBDE8F0812046FFF7EB
:1021700063FFC4F88050F7E7276E2026012F7BD13C
:10218000C70679D5CF0677D5102010622068806801
:10219000400641D5216F086840680004000CE3D078
:1021A000B4F858208242DFD9A4F85A0008680068C1
:1021B00080062AD4206850E8001F21F4807140E88E
:1021C0000012002AF6D12068083050E8001F21F0E4
:1021D000010140E80012002AF5D12068083050E8DB
:1021E000001F21F0400140E80012002AF5D1E66707
:1021F0002566216851E8000F20F0100041E8000238
:10220000002AF6D1206FFEF702FBB4F85800B4F8AC
:102210005A10401A81B22AE0B4F85800B4F85A10A3
:10222000401A81B2B4F85A0000289DD000299BD0F2
:10223000226852E8000F20F4907042E80003002B5F
:10224000F6D12068083050E8002F22F0010240E863
:102250000023002BF5D1E66725666566226852E803
:10226000000F20F0100042E80003002BF6D12046BA
:10227000FFF7E0FE78E7FFE7C70209D55B0207D565
:102280004FF4801010622046BDE8F041FFF7D3BE46
:10229000020606D50A0604D5A16E00297FF45DAFBB
:1022A00062E74006E6D54806E4D52046026852E8D3
:1022B000001F21F0400142E80013002BF6D1866791
:1022C000856600F0ADF84FE72001000411320008E8
:1022D00010B5040002D0A06F10B107E0012010BDBE
:1022E000002084F87400204600F026F82420A0671F
:1022F0002068016821F001010160204600F0B8FF6C
:102300000128ECD0606A10B1204600F0EFFE206892
:10231000416821F4904141602068816821F02A01E0
:1023200081602068016841F0010101602046BDE83C
:10233000104000F03FBF00002DE9F0419EB0044680
:10234000142118A8FEF737F960216846FEF733F923
:102350002F4920682F4C0327002502264FF007083D
:1023600088422DD10120009008956846FEF728FF8D
:1023700008B1FEF74AFA206E40F480402066206ED5
:1023800000F480401D90E06C40F00200E064E06CDE
:102390001AAA00F002001D90C020CDE9180682E8BC
:1023A000A00118A91C48FEF75DFB0022114625205C
:1023B000FEF7EEFD2520FEF7DEFD1EB0BDE8F08144
:1023C00016498842F9D1684600960995FEF7F8FE4D
:1023D00008B1FEF71AFAA06D40F40030A065A06DB8
:1023E00000F400301D90E06C40F00100E064E06C0F
:1023F0001AAA00F001001D900C20CDE9180682E811
:10240000A00118A94FF09040FEF72CFBD5E7000083
:102410000038014000100240000400480044004021
:102420007047FEE72DE9F04387B014216846FEF7B8
:10243000C2F83B48C16C41F00401C164C16C01F0B9
:1024400004010591C16C41F08001C164C16C01F0CF
:1024500080010591C16C41F00101C164C16C01F0C2
:1024600001010591C16C41F00201C164C06C2D4FA6
:1024700000F00200059000220D213846FEF7EAFB2D
:102480004FF090480022B1214046FEF7E3FBDFF811
:1024900098904FF40056002231464846FEF7DAFB8A
:1024A000B01C00904FF404100024CDE901046946EB
:1024B0003846FEF7D7FA0D2000900125CDE90154EA
:1024C000694638460394FEF7CDFAB1200090CDE975
:1024D0000154694640460394FEF7C4FA40208DE853
:1024E000310069464046FEF7BDFA0096CDE9015439
:1024F000694648460394FEF7B5FA6802CDE9000440
:10250000694648460294FEF7ADFA002211460720BC
:10251000FEF73EFD0720FEF72EFD07B0BDE8F08375
:10252000001002400008004800040048124810B59E
:10253000104901601149416000210122C0E90212E5
:10254000016141618161C1610162FEF7E3FB08B194
:1025500072B6FEE700210848FEF788FB08B172B6A4
:10256000FEE700210448FEF7ACFB002801D072B65C
:10257000FEE710BD0054004010000020EC9C9010BD
:10258000124810B510490160114941600021012233
:10259000C0E90212016141618161C1610162FEF71E
:1025A000B9FB08B172B6FEE700210848FEF75EFBF2
:1025B00008B172B6FEE700210448FEF782FB00284E
:1025C00001D072B6FEE710BD005800406400002044
:1025D000EC9C9010114810B50F4901604FF48271C6
:1025E000416000214FF4E062C0E902124FF4007232
:1025F0000161C0E905121822C0E9072107224162E2
:10260000C0E90A12016308214163FFF719FB0028A2
:1026100001D072B6FEE710BD00300140B8000020C6
:102620000C4810B50A4901604FF4E13141600021C6
:1026300081600C22C160C0E904128161C161016244
:102640004162FFF745FE002801D072B6FEE710BDDB
:10265000003801401C0100200C4810B50A490160F7
:102660004FF4E1314160002181600C22C160C0E97A
:1026700004128161C16101624162FFF729FE0028F5
:1026800001D072B6FEE710BD00440040A00100205A
:10269000FEE7FEE7704700002DE9F041444C054697
:1026A0008846E0680026810728680DD0E16801F0BF
:1026B0000301814216D1A8B1E0686968C0F3021035
:1026C000401C88420ED120E0012804D0022805D009
:1026D000032807D108E02168890701E0216849053E
:1026E000002907DB01265FE02168890302D4216805
:1026F0004903F5E7E1686A686FF00F0321F07301A1
:1027000003EB021211430143E160206820F0806076
:102710002060FEF7A5FA074605E000BFFEF7A0FA25
:10272000C01B022837D820680001F7D4B8F1000F89
:1027300018D0B8F1010F1DD0287D4FF07E41400820
:1027400001EB4060A96840EA01202169194A114063
:1027500008432061206840F080602060FEF780FA26
:1027600007461AE0A868297B000240EAC160216997
:10277000114AECE7288A1149400801EB4050A9684A
:1027800040EA012021690E4AE1E700BFFEF768FA3E
:10279000C01B022801D9032606E020680001F5D5F8
:1027A0002069A969084320613046BDE8F081000036
:1027B00000100240FF80FFF9FF80FF070000E0FFEC
:1027C000FF809FFFF8B51C4D06460024A86DC00091
:1027D00002D5FEF7EDFC0DE0A86D40F08050A86535
:1027E000A86D00F080500090FEF7E2FCA96D21F08A
:1027F0008051A965B0F5007F04D0802E07D94FF035
:1028000003040AE0802E08D9A02E01D804E001D1EB
:10281000022402E0702E00D101240848016821F052
:10282000070121430160006800F00700A04201D0C9
:102830000120F8BD0020F8BD001002400020024039
:1028400070B5054600F024F80446284600F004F868
:10285000204440B270BD000030B587B00546142159
:102860006846FDF7A8FE09A002220068059005A9A8
:10287000284600F0ECF9044605226946284600F097
:102880005DF9204407B040B230BD000023000000D5
:1028900030B587B0054614216846FDF78CFE09A0C7
:1028A00004220068059005A9284600F0D0F90446E6
:1028B00009226946284600F041F9204407B040B299
:1028C00030BD00002000000008B504A10222096804
:1028D0000091694600F0BBF908BD00001502000038
:1028E000002201210148FEF7B5B9000000080048A8
:1028F00008B504A1022209680091694600F0A7F911
:1029000008BD000015010000012211464FF0904063
:10291000FEF7A0B930B587B0044614216846FDF72C
:102920004AFE11A002220068059005A9204600F089
:102930008EF9054605226946204600F0FFF8284436
:1029400040B218B99DF80110FF2905D0FF2104F805
:10295000311F617007B030BD9DF8041004F8311FBD
:102960009DF80510F5E70000237F000030B587B023
:10297000044614216846FDF71EFE2FA004220068BD
:10298000059005A9204600F062F90546092269462E
:10299000204600F0D3F8284443B2EBBB9DF8010079
:1029A000FF2846D19DF804109DF806009DF80820E8
:1029B000CD0904F81C5FC1F380156570C1F34015A3
:1029C000A570C1F30015E570C1F3C0052571C1F311
:1029D0004005657101F00101A171C0F38011E17141
:1029E000C0F340112172C0F300116172C0F3C00145
:1029F000A172C0F38001E172C0F34001217300F0C5
:102A000001006073C2F38010A073C2F34010E07342
:102A1000C2F30010207400E00BE0C2F3C000607449
:102A2000C2F38000A074C2F34000E07402F0010021
:102A3000207507B0184630BD20FFFFFF30B585B0C8
:102A40000546002414216846FDF7B5FD02226946BB
:102A5000284600F073F89DF80100FF2800D1FF24FC
:102A600005B0204630BD000030B587B005461421C2
:102A70006846FDF7A0FD0BA002220068059005A99D
:102A8000284600F0E4F8044610226946284600F083
:102A900055F8204440B210B1FF2007B030BD9DF87A
:102AA0000300FAE7150000002DE9F041DCB007460D
:102AB00000264FF4B8721A496846FDF728FD6C46A7
:102AC000384600F0A6F823E00546FDF7EFFB804608
:102AD0002946FDF74EFD641C2A4621464046FDF777
:102AE000D1FC2A464146384600F0B1F8060003D032
:102AF0004046FDF70AFC0EE02C443846FFF79EFFE7
:102B0000FF2802D06FF02706F2E74046FDF7FDFBF5
:102B100020780028D8D15CB03046BDE8F0810000B4
:102B2000F836000810B54FF400710348FEF785F839
:102B3000012800D0002010BD000400482DE9F04716
:102B40000746541C1546894600262046FDF7AEFB75
:102B50008046691CFDF70DFD442188F800100A220B
:102B6000C821384600F027F948B1F86880473B682B
:102B700022464946404698473869804701E06FF051
:102B80001D064046FDF7C1FB3046BDE8F0872DE944
:102B9000F05F054614468B46C826501CFDF786FBA1
:102BA0008146611CFDF7E5FC671C3846FDF77EFB9E
:102BB0008246611CFDF7DDFC77218AF800106FF07A
:102BC0001D08A869804788B1E86880472B68BAB2B9
:102BD00049465046984728698047224609F1010135
:102BE0005846FDF74FFC4FF0000806E069690A20DF
:102BF0008847761E16F0FF06E3D15046FDF785FBA9
:102C00004846FDF782FB404600F000B830BCBDE806
:102C1000C09F10B504464068804761690A20884714
:102C2000A06880470A22C821204600F0C4F8204648
:102C300000F032F820460A22BDE81040C82100F01A
:102C4000BAB8002201214FF09040FEF703B82DE9F9
:102C5000F04106460F46154600241046FDF726FBB8
:102C600080462946FDF785FC0A22C821304600F03F
:102C7000A2F848B1F068804733682A464146384692
:102C800098473069804701E06FF01D044046FDF72A
:102C90003CFB2046BDE8F0811CB5044600200090B6
:102CA0000190E06880472368012201A9684698479F
:102CB000206980471CBD0000012211460148FDF734
:102CC000C9BF0000000800482DE9FC410026089F0C
:102CD0003546344602B1082603B1082507B1082459
:102CE0000AA3D3E90023CDE900238DF804100A0AD2
:102CF0008DF805608DF803208DF806508DF807409B
:102D000008226946FFF7A3FFBDE8FC8132000000FE
:102D1000000000007CB50546002002B1802013A30E
:102D2000D3E90023CDE900238DF80200C1F304208C
:102D30008DF803008DF80410052269462846FFF738
:102D400086FF04460A22C821284600F034F840B124
:102D50000A22C821284600F04AF820B96FF045043D
:102D600001E03C3C64B220467CBD00003100000024
:102D7000000000002DE9F04115460E460746FFF71A
:102D80005FFD04463846FFF76FFEA84210D3FF28C8
:102D90000ED02A463146384600F04CF80444002252
:102DA00029463846FFF7B6FF204440B2BDE8F0811F
:102DB000323C60B2FAE72DE9F04117460C46064670
:102DC00001250FE0B069804708B101250CE0012C16
:102DD00002D13046FFF760FF716900253846884709
:102DE000641EE4B2002CEDD12846BDE8F0812DE947
:102DF000F04117460D46064601240AE0B0698047B7
:102E000008B1012407E071690024384688476D1E27
:102E1000EDB2002DF2D12046BDE8F08108B5642363
:102E2000009313460A4601460148FEF7BBFF08BD62
:102E3000B80000202DE9F0418046561C14460F468C
:102E40003046FDF733FA0546611CFDF792FB66201C
:102E5000287022463946681CFDF714FBB2B2294699
:102E60004046FFF7F4FE04462846FDF74EFA20469A
:102E7000BDE8F081F8B515460E460B4600920446B3
:102E800000224FF4C05100F019F888B933460022EF
:102E900080212046009500F085F848B9334600228D
:102EA0004FF4C0612046009500F008F8002804D0D7
:102EB000206E40F0200020660320F8BD2DE9FE4F73
:102EC0004FF0000A984617460E4604460C9D8DF8B2
:102ED00004A0FDF7C5FE411BA8EB0105FDF7C0FEF0
:102EE000814620684FF4C06B0C3002902A4800687D
:102EF000C0EBC00000EB8000000D6843009043E091
:102F00005E4506D12FB9029800788DF804009DF82F
:102F10000400B8F1FF3F37D0FDF7A2FEA0EB090097
:102F2000A84203D215B1009858B32BE0206841683D
:102F300021F0E00141606068B0F5827F0BD1A068AC
:102F4000B0F5004F02D0B0F5806F04D12068016861
:102F500021F040010160A06AB0F5005F09D120684E
:102F6000016821F4005101602068016841F40051BA
:102F70000160012084F85D0084F85CA0032000F06B
:102F80000DB80025401E0090206880683040B8428F
:102F9000B6D10020F3E700000C0000201EBCBDE805
:102FA000E08F00002DE9F8431E469146884604460E
:102FB000089DFDF755FE401B351AFDF751FE0746EB
:102FC00025480068C0F3CB30684338E0701C37D028
:102FD000FDF746FEC01BA84203D215B1009860B3AE
:102FE0002CE02068416821F0E00141606068B0F5A4
:102FF000827F0BD1A068B0F5004F02D0B0F5806F92
:1030000004D12068016821F040010160A06AB0F598
:10301000005F09D12068016821F400510160206837
:10302000016841F400510160012084F85D00002036
:1030300084F85C000320BDE8F8830025401E009062
:103040002068816838EA010004D000214945BDD1DB
:103050000020F0E70121F9E70C0000207047FDF7A0
:1030600023BF00B597B044216846FDF7A4FA1421A8
:1030700011A8FDF7A0FA4FF40070FEF765F808B14B
:1030800072B6FEE7222000904FF48070039010206B
:10309000049001210220CDE90910CDE90B01142192
:1030A0000D910721CDE90E10042010906846FEF71F
:1030B00017FB08B172B6FEE70F20119003201290A3
:1030C0000020139014901590042111A8FEF7F0F938
:1030D000002801D072B6FEE717B000BD02480168B3
:1030E00041F470010160704788ED00E090F8241011
:1030F000C90706D001684A68836A22F400321A437D
:103100004A6090F82410890706D501684A68C36AA6
:1031100022F480321A434A6090F82410490706D5F9
:1031200001684A68036B22F480221A434A6090F8CF
:103130002410090706D501684A68436B22F400424F
:103140001A434A6090F82410C90606D501688A68B7
:10315000836B22F480521A438A6090F82410890607
:1031600006D501688A68C36B22F400521A438A604C
:1031700090F82410490611D501684A68036C22F4BE
:1031800080121A434A60016CB1F5801F06D10168B4
:103190004A68436C22F4C0021A434A6090F8241033
:1031A000090606D501684A68806C22F400220243B1
:1031B0004A607047F8B500260446C0F88060FDF705
:1031C0004FFD0546206800686FF07E47000708D570
:1031D0002B4600224FF400112046009700F048F9DA
:1031E00060B92068006840070AD52B4600224FF4DA
:1031F00080012046009700F03BF908B10320F8BD9C
:103200002020A067E067266684F874600020F8BD7F
:1032100010B5806A0021A0F85A10A0F85210FEF7ED
:103220000BFF10BD016851E8002F22F4907241E8B5
:103230000023002BF6D10168083151E8002F22F05D
:10324000010241E80023002BF5D1016E012908D1CC
:10325000026852E8001F21F0100142E80013002B21
:10326000F6D12021C1670021016641667047000048
:103270002DE9F0410446016880682269E369104342
:10328000626900251A431043714F0A68714B1A4056
:1032900002430A6020684168E26821F4405111430A
:1032A00041602168A069B94201D0226A10438A684E
:1032B00022F4306202438A606749236867488B4280
:1032C0000DD1D0F8880010F0030006D0012847D0B7
:1032D000022843D0032830D144E001212EE0604988
:1032E0008B420BD1D0F8880010F00C0034D00428A9
:1032F00036D0082832D00C281FD133E059498B42F0
:103300000BD1D0F8880010F0300025D0102827D03D
:10331000202823D0302810D124E0BB420DD1D0F892
:10332000880010F4406017D0B0F5806F18D0B0F569
:10333000006F13D0B0F5406F14D010214A4A002618
:103340004FF40040BB422FD171B102290FD00429A4
:103350000FD0082973D10FE00021EFE70221EDE73C
:103360000421EBE70821E9E7FEF744F903E0104602
:1033700002E0FEF763F9E8B3626802EB42018142C2
:103380005DD8B0EB023F5AD8010E0302500818185E
:1033900071410023FCF7E0FF344AA0F540719142EF
:1033A0004DD82168C8604BE0E3694FF6EF77834260
:1033B00028D1092943D2DFE801F005080B420D426C
:1033C00042421000FEF716F906E0FEF725F903E089
:1033D000104602E0FEF732F960B14100606801EB8F
:1033E0005001B1FBF0F0A0F11001B94227D84FF61F
:1033F000F07100E024E00140C0F342000143206886
:10340000C1601DE009291AD2DFE801F005080B1997
:103410000D1919191000FEF7EDF806E0FEF7FCF89B
:1034200003E0104602E0FEF709F948B1616800EBDD
:103430005100B0FBF1F0A0F11001B94205D901250E
:1034400066662846A666BDE8F08180B2A9E700005E
:1034500000800040F369FFEF003801400010024097
:1034600000440040004800400024F400FFFC0F002E
:103470002DE9F0479A4617460E4604464FF00009DC
:103480004FF02008089D4AE0681C48D0FDF7E8FB93
:10349000A0EB0A00A8422AD84DB32068016849076A
:1034A0003DD5C069C043000539D421684FF40060A0
:1034B0000862206850E8001F21F4D07140E8001233
:1034C000002AF6D12068083050E8001F21F00101E1
:1034D00040E80012002AF5D1C4F87880C4F87C8056
:1034E000C4F8808084F874900320BDE8F0872168D8
:1034F00051E8000F20F4D07041E80002002AF6D114
:103500002068083050E8001F21F0010140E8001257
:10351000002AF5D1C4F87880C4F87C80E2E72068FE
:10352000C06936EA000004D00020B842ACD00020C8
:10353000DBE70120F9E700000148FEF77FBD00004E
:103540001C0100200020704730F8581FC1F30E0105
:10355000018000207047012120F8401F00210180D8
:10356000818001820846704730F8401F4BF6807218
:10357000914301800020704700207047FEE7090753
:10358000090E002804DB00F1E02080F800147047E9
:1035900000F00F0000F1E02080F8141D70470000DB
:1035A00008B5FDF789FCFFF75CFDFEF73BFFFEF772
:1035B000BDFFFEF7E5FFFFF70DF8FFF74DF83048C8
:1035C0002E49002401600821416002218160C0E988
:1035D00004148461C4610462FDF71EFD08B172B673
:1035E000FEE7FFF71DF82848264981612749016059
:1035F0002749C16027490161274941602749816006
:10360000274941610620FDF7A5FC1F48FFF74CFA4A
:103610001D48FFF759F900231A460A211A48009459
:10362000FFF752FB0620FDF7A6FC1748FFF730F91D
:10363000154C3E345FF00005FCF7FEFD2070FCF7F2
:10364000FBFD6070FCF7F8FDA070FCF7F5FDE07085
:10365000FCF7F2FD2071FCF7EFFD6071FCF7ECFD6B
:103660000949A0710A223E310748FFF783FB642015
:10367000FDF71AF96D1C642DDEDBDBE70068004006
:1036800024020020252B0008200500201D2E000804
:10369000432C000809290008B92C0008E12800087B
:1036A000A90800084FF04070E1EE100A70470000D2
:1036B00000000000000000000102030406070809E2
:1036C000A0860100400D0300801A060000350C00A2
:1036D00040420F0080841E0000093D0000127A0065
:1036E0000024F40000366E010048E801006CDC02A2
:1036F000000000000102030407020100018CBA80EF
:1037000008130000000000000006110002005240F3
:103710000511000103600811010400073B0028089F
:1037200011020400000000000D111009000814002F
:103730000F3100000000091111050001B42B000039
:103740000B11120700800108FFFF00021011120C7C
:1037500008000000303000070400000000101112C3
:103760000C14000000000000000000000000101118
:10377000120C200000000000000000000000000DFE
:103780001112092C000000000000000000101120A0
:103790000C00010007002710018CBA800000051101
:1037A00020010C000C112008180000080380001AEA
:1037B000200D1120092200CB028547014302C00BD6
:1037C0001120072C0012000A4FEDA0051120013531
:1037D000620D11200938112C2C0002FFFF00290D69
:1037E00011200942A400D60203120180FF05112016
:1037F000014C00051120014E4005112001510A1015
:1038000011210C00FFBA0F51CFA9C9FC1B1E0F01DB
:103810001011210C0CFCFD15FF000FFFBA0F51CF4A
:10382000A91011210C18C9FC1B1E0F01FCFD15FF6E
:10383000000F0811220400087F005F0B112307000E
:103840002C0E0B040C73031011300C000000000050
:1038500000000000000000000C11400800410F6251
:10386000769D8A20FE0000008838000800000020B5
:1038700010000000C801000898380008100000205F
:10388000A00C0000E401000801000000100000008E
:083890000000000000093D00EA
:040000050800018D61
:00000001FF
